:020000040800F2
:10000000A806002029020008310200083302000877
:10001000350200083702000839020008000000001D
:100020000000000000000000000000003B0200088B
:100030003D020008000000003F02000841020008E5
:10004000430200084302000843020008430200087C
:10005000430200084302000843020008430200086C
:10006000430200084302000843020008430200085C
:10007000430200084302000843020008430200084C
:10008000430200084302000843020008430200083C
:10009000430200084302000843020008430200082C
:1000A000430200084302000843020008430200081C
:1000B000430200084302000843020008430200080C
:1000C00043020008430200084302000843020008FC
:1000D00043020008430200084302000843020008EC
:1000E00043020008430200084302000843020008DC
:1000F00043020008430200084302000843020008CC
:1001000043020008430200084302000843020008BB
:1001100043020008430200084302000843020008AB
:10012000430200084302000843020008430200089B
:10013000430200084302000843020008430200088B
:10014000430200084302000843020008430200087B
:10015000430200084302000843020008430200086B
:10016000430200084302000843020008430200085B
:10017000430200084302000843020008430200084B
:10018000430200084302000800F002F800F03CF8C7
:100190000AA090E8000C82448344AAF10107DA45E2
:1001A00001D100F031F8AFF2090EBAE80F0013F0F8
:1001B000010F18BFFB1A43F001031847E0060000C7
:1001C00000070000103A24BF78C878C1FAD8520757
:1001D00024BF30C830C144BF04680C6070470000C1
:1001E0000023002400250026103A28BF78C1FBD840
:1001F000520728BF30C148BF0B6070471FB500F0E1
:1002000047FB1FBD10B510BD00F077F81146FFF792
:10021000F5FF00F0E3FA00F095F803B4FFF7F2FF02
:1002200003BC00F09DF800000948804709480047DA
:10023000FEE7FEE7FEE7FEE7FEE7FEE7FEE7FEE796
:10024000FEE7FEE704480549054A064B70470000F3
:100250005906000889010008A8000020A80600200F
:10026000A8020020A80200200FB41CB5074B06AA64
:100270007B4469460090059800F013F80020694619
:1002800000F022F81CBC5DF814FB000055000000D3
:10029000704770477047000001694A1C0261087886
:1002A000704700B58FB0CDE90131002105910549B6
:1002B0007944CDE903101146684600F00AF80FB002
:1002C00000BD0000E5FFFFFF0A6802F8010B0A60AD
:1002D00070472DE9F04106460024D6E90170F56823
:1002E0008046304603E04146B847641C3046A84784
:1002F0000028F8D12046BDE8F081754600F02CF8C2
:10030000AE4605006946534620F00700854618B002
:1003100020B5FFF797FFBDE820404FF000064FF0F3
:1003200000074FF000084FF0000B21F00701AC462A
:10033000ACE8C009ACE8C009ACE8C009ACE8C00949
:100340008D46704710B50446AFF300802046BDE8E7
:100350001040FFF762BF00000048704748000020CF
:1003600001491820ABBEFEE7260002007047F0B539
:100370000A4600210023002400BF3DE0012505FAC4
:1003800001F3156805EA03049C4234D105684F0067
:100390000326BE40B543056015794E00B54006689A
:1003A000354305601579012D02D01579022D16D13E
:1003B00085684F000326BE40B543856055794E00E1
:1003C000B540866835438560456801268E40B54353
:1003D0004560456896798E40B6B235434560C5683C
:1003E0004F000326BE40B543C560D5794E00B540E9
:1003F000C6683543C560491C1029BFD3F0BDF0B5B0
:10040000002300244D07ED0E02FA05F3CE1000F193
:10041000200555F826504E07F70E0F26BE40B5436F
:10042000CF1000F1200646F82750CE1000F120052D
:1004300055F8265045EA0304CE1000F1200545F892
:100440002640F0BD29B1064A12680243044B1A60E7
:1004500004E0034A12688243014B1A6070470000AF
:100460003038024029B1064A12680243044B1A6030
:1004700004E0034A12688243014B1A60704700008F
:1004800040380240F0B50021002200240225002659
:100490000223324F3F6807F00C0121B1042905D037
:1004A000082937D105E02E4F076036E02D4F076051
:1004B00033E02A4F3F1F3F68C7F38056274F3F1F47
:1004C0003F6807F03F036EB1264FB7FBF3F7DFF845
:1004D0008CC0ACF1040CDCF800C0CCF3881C07FB2A
:1004E0000CF40CE01E4FB7FBF3F7DFF870C0ACF173
:1004F000040CDCF800C0CCF3881C07FB0CF4174F8D
:100500003F1F3F68C7F301477F1C7D00B4FBF5F731
:10051000076002E0124F076000BF00BF0F4F3F6847
:1005200007F0F0010909104F7A5C0768D74047606F
:100530000A4F3F6807F4E051890A0B4F7A5C47681D
:10054000D7408760054F3F6807F46041490B064F6D
:100550007A5C4768D740C760F0BD000008380240A9
:100560000024F40000127A00040000200CB50020E2
:10057000019000903448006840F4803032490860AF
:1005800000BF3148006800F4003000900198401C22
:100590000190009818B90198B0F5A04FF1D12A4800
:1005A000006800F4003010B10120009001E000204C
:1005B00000900098012846D123484030006840F060
:1005C00080502149403108602048006840F4404094
:1005D0001E4908601C48083000681B490831086043
:1005E0000846006840F4004008600846006840F48F
:1005F000A05008601648091F0860081F006840F0F6
:100600008070091F086000BF0F48006800F000708C
:100610000028F9D040F205700E4908600A480830F9
:10062000006820F0030008490831086008460068A7
:1006300040F00200086000BF03480830006800F086
:100640000C000828F8D10CBD0038024000700040B2
:1006500019544007003C024010B51548006840F4AA
:100660007000134908601348006840F00100114908
:10067000086000200F49083108600E4800680E49E4
:1006800008400C4908600D48091D0860081F0068F3
:1006900020F48020091F0860002006490C31086002
:1006A000FFF764FF4FF0006001498039086010BD1A
:1006B00088ED00E000380240FFFFF6FE1030002415
:1006C00021B1828942F40052828104E082894DF690
:1006D000FF731A40828170472DE9FF4705460E4699
:1006E0000024A14600BFA046B08900B100BF2C8AFB
:1006F00024F44054F08804432C82AC8941F20C600D
:100700008443B08831890843718908430443AC812C
:10071000AC8A24F44074B0890443AC826846FFF785
:10072000B1FE2048854202D01F48854202D1DDF843
:100730000C9001E0DDF80890A88900F4004040B179
:1007400009EBC90000EB091031684900B0FBF1F773
:1007500007E009EBC90000EB091031688900B0FB24
:10076000F1F76420B7FBF0F004012009642101FBDC
:100770001078A88900F4004040B1322000EBC80096
:10078000B0FBF1F000F00700044308E0322000EB7A
:1007900008106421B0FBF1F000F00F0004432C813D
:1007A000BDE8FF87001001400014014070B5054608
:1007B0000C460BE000BF288800F040000028FAD06B
:1007C0002178284600F006F814F8010B207800285C
:1007D000F0D170BDC1F308028280704786B001215C
:1007E0004804FFF73FFE01210846FFF72BFE0220D9
:1007F0008DF814000420049001208DF817000320C8
:100800008DF8150004A91B48FFF7B1FD072202214E
:100810001848FFF7F4FD4FF4E13000900020ADF8E8
:100820000C000820ADF80A000020ADF80800ADF873
:100830000600ADF8040069460F48FFF74DFF01219F
:100840000D48FFF73DFF14E00CA10E48FFF70CFD2B
:100850000C490948FFF7AAFF0B480C49086004E05F
:100860000A480068401E09490860084800680028D6
:10087000F6D1E9E700000240004400404D6574698C
:100880006E200A0014000020C0270900000000208C
:100890004FF04070E1EE100A70470000BC080008FD
:1008A0000000002014000000C4010008D008000867
:1008B0001400002094060000E00100080000000081
:1008C00000000000010203040102030406070809F6
:0400000508000229C4
:00000001FF
